{
  "abi": [
    {
      "anonymous": false,
      "inputs": [
        {
          "indexed": false,
          "internalType": "uint8",
          "name": "version",
          "type": "uint8"
        }
      ],
      "name": "Initialized",
      "type": "event"
    },
    {
      "inputs": [
        {
          "internalType": "address",
          "name": "_investor",
          "type": "address"
        }
      ],
      "name": "addInvestor",
      "outputs": [],
      "stateMutability": "nonpayable",
      "type": "function"
    },
    {
      "inputs": [],
      "name": "balance",
      "outputs": [
        {
          "internalType": "uint256",
          "name": "",
          "type": "uint256"
        }
      ],
      "stateMutability": "view",
      "type": "function"
    },
    {
      "inputs": [],
      "name": "implementation",
      "outputs": [
        {
          "internalType": "address",
          "name": "",
          "type": "address"
        }
      ],
      "stateMutability": "view",
      "type": "function"
    },
    {
      "inputs": [
        {
          "internalType": "address",
          "name": "proxy",
          "type": "address"
        }
      ],
      "name": "initialize",
      "outputs": [],
      "stateMutability": "nonpayable",
      "type": "function"
    },
    {
      "inputs": [
        {
          "internalType": "address",
          "name": "",
          "type": "address"
        }
      ],
      "name": "isInvestor",
      "outputs": [
        {
          "internalType": "bool",
          "name": "",
          "type": "bool"
        }
      ],
      "stateMutability": "view",
      "type": "function"
    },
    {
      "inputs": [],
      "name": "manager",
      "outputs": [
        {
          "internalType": "address",
          "name": "",
          "type": "address"
        }
      ],
      "stateMutability": "view",
      "type": "function"
    }
  ],
  "bytecode": {
    "object": "0x608060405234801561001057600080fd5b506102ca806100206000396000f3fe608060405234801561001057600080fd5b50600436106100625760003560e01c8063481c6a75146100675780635c60da1b14610097578063b69ef8a8146100aa578063c4d66de8146100c1578063cee2a9cf146100d6578063e641bde114610109575b600080fd5b60045461007a906001600160a01b031681565b6040516001600160a01b0390911681526020015b60405180910390f35b60035461007a906001600160a01b031681565b6100b360015481565b60405190815260200161008e565b6100d46100cf366004610264565b61013b565b005b6100f96100e4366004610264565b60026020526000908152604090205460ff1681565b604051901515815260200161008e565b6100d4610117366004610264565b6001600160a01b03166000908152600260205260409020805460ff19166001179055565b600054610100900460ff161580801561015b5750600054600160ff909116105b806101755750303b158015610175575060005460ff166001145b6101dc5760405162461bcd60e51b815260206004820152602e60248201527f496e697469616c697a61626c653a20636f6e747261637420697320616c72656160448201526d191e481a5b9a5d1a585b1a5e995960921b606482015260840160405180910390fd5b6000805460ff1916600117905580156101ff576000805461ff0019166101001790555b600480546001600160a01b0319166001600160a01b0384161790558015610260576000805461ff0019169055604051600181527f7f26b83ff96e1f2b6a682f133852f6798a09c465da95921460cefb38474024989060200160405180910390a15b5050565b60006020828403121561027657600080fd5b81356001600160a01b038116811461028d57600080fd5b939250505056fea26469706673582212201a5ccac245dde1a214b0ed601022c1edc94f9fc0daf5454d8ffb578bef028c7b64736f6c634300080f0033",
    "linkReferences": {}
  },
  "methodIdentifiers": {
    "addInvestor(address)": "e641bde1",
    "balance()": "b69ef8a8",
    "implementation()": "5c60da1b",
    "initialize(address)": "c4d66de8",
    "isInvestor(address)": "cee2a9cf",
    "manager()": "481c6a75"
  },
  "id": 14
}