{
  "abi": [
    {
      "inputs": [
        {
          "internalType": "address",
          "name": "_implementation",
          "type": "address"
        }
      ],
      "stateMutability": "nonpayable",
      "type": "constructor"
    },
    {
      "anonymous": false,
      "inputs": [
        {
          "indexed": true,
          "internalType": "address",
          "name": "previousOwner",
          "type": "address"
        },
        {
          "indexed": true,
          "internalType": "address",
          "name": "newOwner",
          "type": "address"
        }
      ],
      "name": "OwnershipTransferred",
      "type": "event"
    },
    {
      "inputs": [
        {
          "internalType": "address",
          "name": "_investor",
          "type": "address"
        }
      ],
      "name": "addInvestor",
      "outputs": [],
      "stateMutability": "nonpayable",
      "type": "function"
    },
    {
      "inputs": [],
      "name": "balance",
      "outputs": [
        {
          "internalType": "uint256",
          "name": "",
          "type": "uint256"
        }
      ],
      "stateMutability": "view",
      "type": "function"
    },
    {
      "inputs": [],
      "name": "implementation",
      "outputs": [
        {
          "internalType": "address",
          "name": "",
          "type": "address"
        }
      ],
      "stateMutability": "view",
      "type": "function"
    },
    {
      "inputs": [
        {
          "internalType": "address",
          "name": "",
          "type": "address"
        }
      ],
      "name": "isInvestor",
      "outputs": [
        {
          "internalType": "bool",
          "name": "",
          "type": "bool"
        }
      ],
      "stateMutability": "view",
      "type": "function"
    },
    {
      "inputs": [],
      "name": "owner",
      "outputs": [
        {
          "internalType": "address",
          "name": "",
          "type": "address"
        }
      ],
      "stateMutability": "view",
      "type": "function"
    },
    {
      "inputs": [],
      "name": "renounceOwnership",
      "outputs": [],
      "stateMutability": "nonpayable",
      "type": "function"
    },
    {
      "inputs": [
        {
          "internalType": "address",
          "name": "newOwner",
          "type": "address"
        }
      ],
      "name": "transferOwnership",
      "outputs": [],
      "stateMutability": "nonpayable",
      "type": "function"
    },
    {
      "inputs": [
        {
          "internalType": "address",
          "name": "_implementation",
          "type": "address"
        }
      ],
      "name": "upgradeTo",
      "outputs": [],
      "stateMutability": "nonpayable",
      "type": "function"
    }
  ],
  "bytecode": {
    "object": "0x608060405234801561001057600080fd5b5060405161056838038061056883398101604081905261002f916100ad565b6100383361005d565b600380546001600160a01b0319166001600160a01b03929092169190911790556100dd565b600080546001600160a01b038381166001600160a01b0319831681178455604051919092169283917f8be0079c531659141344cd1fd0a4f28419497f9722a3daafe3b4186f6b6457e09190a35050565b6000602082840312156100bf57600080fd5b81516001600160a01b03811681146100d657600080fd5b9392505050565b61047c806100ec6000396000f3fe608060405234801561001057600080fd5b50600436106100885760003560e01c8063b69ef8a81161005b578063b69ef8a8146100eb578063cee2a9cf14610102578063e641bde114610135578063f2fde38b1461014857600080fd5b80633659cfe61461008d5780635c60da1b146100a2578063715018a6146100d25780638da5cb5b146100da575b600080fd5b6100a061009b3660046103db565b61015b565b005b6003546100b5906001600160a01b031681565b6040516001600160a01b0390911681526020015b60405180910390f35b6100a0610185565b6000546001600160a01b03166100b5565b6100f460015481565b6040519081526020016100c9565b6101256101103660046103db565b60026020526000908152604090205460ff1681565b60405190151581526020016100c9565b6100a06101433660046103db565b610199565b6100a06101563660046103db565b6102b8565b610163610331565b600380546001600160a01b0319166001600160a01b0392909216919091179055565b61018d610331565b610197600061038b565b565b6101a1610331565b6003546040516001600160a01b038381166024830152600092839291169060440160408051601f198184030181529181526020820180516001600160e01b031663e641bde160e01b179052516101f7919061040b565b600060405180830381855af49150503d8060008114610232576040519150601f19603f3d011682016040523d82523d6000602084013e610237565b606091505b50915091508161028e5760405162461bcd60e51b815260206004820152601a60248201527f616464496e766573746f72206e6f74207375636365737366756c00000000000060448201526064015b60405180910390fd5b6001600160a01b03831660009081526002602052604090205460ff166102b357600080fd5b505050565b6102c0610331565b6001600160a01b0381166103255760405162461bcd60e51b815260206004820152602660248201527f4f776e61626c653a206e6577206f776e657220697320746865207a65726f206160448201526564647265737360d01b6064820152608401610285565b61032e8161038b565b50565b6000546001600160a01b031633146101975760405162461bcd60e51b815260206004820181905260248201527f4f776e61626c653a2063616c6c6572206973206e6f7420746865206f776e65726044820152606401610285565b600080546001600160a01b038381166001600160a01b0319831681178455604051919092169283917f8be0079c531659141344cd1fd0a4f28419497f9722a3daafe3b4186f6b6457e09190a35050565b6000602082840312156103ed57600080fd5b81356001600160a01b038116811461040457600080fd5b9392505050565b6000825160005b8181101561042c5760208186018101518583015201610412565b8181111561043b576000828501525b50919091019291505056fea2646970667358221220f51ac2485231fc367ae9d7df3706da15c6ec6ff448a6dfdd2a3f3c3ba84e705964736f6c634300080f0033",
    "linkReferences": {}
  },
  "methodIdentifiers": {
    "addInvestor(address)": "e641bde1",
    "balance()": "b69ef8a8",
    "implementation()": "5c60da1b",
    "isInvestor(address)": "cee2a9cf",
    "owner()": "8da5cb5b",
    "renounceOwnership()": "715018a6",
    "transferOwnership(address)": "f2fde38b",
    "upgradeTo(address)": "3659cfe6"
  },
  "id": 15
}