{
  "abi": [
    {
      "anonymous": false,
      "inputs": [
        {
          "indexed": false,
          "internalType": "address",
          "name": "previousAdmin",
          "type": "address"
        },
        {
          "indexed": false,
          "internalType": "address",
          "name": "newAdmin",
          "type": "address"
        }
      ],
      "name": "AdminChanged",
      "type": "event"
    },
    {
      "anonymous": false,
      "inputs": [
        {
          "indexed": true,
          "internalType": "address",
          "name": "owner",
          "type": "address"
        },
        {
          "indexed": true,
          "internalType": "address",
          "name": "spender",
          "type": "address"
        },
        {
          "indexed": false,
          "internalType": "uint256",
          "name": "value",
          "type": "uint256"
        }
      ],
      "name": "Approval",
      "type": "event"
    },
    {
      "anonymous": false,
      "inputs": [
        {
          "indexed": true,
          "internalType": "address",
          "name": "beacon",
          "type": "address"
        }
      ],
      "name": "BeaconUpgraded",
      "type": "event"
    },
    {
      "anonymous": false,
      "inputs": [
        {
          "indexed": false,
          "internalType": "uint8",
          "name": "version",
          "type": "uint8"
        }
      ],
      "name": "Initialized",
      "type": "event"
    },
    {
      "anonymous": false,
      "inputs": [
        {
          "indexed": true,
          "internalType": "address",
          "name": "previousOwner",
          "type": "address"
        },
        {
          "indexed": true,
          "internalType": "address",
          "name": "newOwner",
          "type": "address"
        }
      ],
      "name": "OwnershipTransferred",
      "type": "event"
    },
    {
      "anonymous": false,
      "inputs": [
        {
          "indexed": true,
          "internalType": "address",
          "name": "from",
          "type": "address"
        },
        {
          "indexed": true,
          "internalType": "address",
          "name": "to",
          "type": "address"
        },
        {
          "indexed": false,
          "internalType": "uint256",
          "name": "value",
          "type": "uint256"
        }
      ],
      "name": "Transfer",
      "type": "event"
    },
    {
      "anonymous": false,
      "inputs": [
        {
          "indexed": true,
          "internalType": "address",
          "name": "implementation",
          "type": "address"
        }
      ],
      "name": "Upgraded",
      "type": "event"
    },
    {
      "inputs": [
        {
          "internalType": "address",
          "name": "owner",
          "type": "address"
        },
        {
          "internalType": "address",
          "name": "spender",
          "type": "address"
        }
      ],
      "name": "allowance",
      "outputs": [
        {
          "internalType": "uint256",
          "name": "",
          "type": "uint256"
        }
      ],
      "stateMutability": "view",
      "type": "function"
    },
    {
      "inputs": [
        {
          "internalType": "address",
          "name": "spender",
          "type": "address"
        },
        {
          "internalType": "uint256",
          "name": "amount",
          "type": "uint256"
        }
      ],
      "name": "approve",
      "outputs": [
        {
          "internalType": "bool",
          "name": "",
          "type": "bool"
        }
      ],
      "stateMutability": "nonpayable",
      "type": "function"
    },
    {
      "inputs": [
        {
          "internalType": "address",
          "name": "account",
          "type": "address"
        }
      ],
      "name": "balanceOf",
      "outputs": [
        {
          "internalType": "uint256",
          "name": "",
          "type": "uint256"
        }
      ],
      "stateMutability": "view",
      "type": "function"
    },
    {
      "inputs": [],
      "name": "decimals",
      "outputs": [
        {
          "internalType": "uint8",
          "name": "",
          "type": "uint8"
        }
      ],
      "stateMutability": "view",
      "type": "function"
    },
    {
      "inputs": [
        {
          "internalType": "address",
          "name": "spender",
          "type": "address"
        },
        {
          "internalType": "uint256",
          "name": "subtractedValue",
          "type": "uint256"
        }
      ],
      "name": "decreaseAllowance",
      "outputs": [
        {
          "internalType": "bool",
          "name": "",
          "type": "bool"
        }
      ],
      "stateMutability": "nonpayable",
      "type": "function"
    },
    {
      "inputs": [],
      "name": "fee",
      "outputs": [
        {
          "internalType": "uint256",
          "name": "",
          "type": "uint256"
        }
      ],
      "stateMutability": "view",
      "type": "function"
    },
    {
      "inputs": [
        {
          "internalType": "address",
          "name": "spender",
          "type": "address"
        },
        {
          "internalType": "uint256",
          "name": "addedValue",
          "type": "uint256"
        }
      ],
      "name": "increaseAllowance",
      "outputs": [
        {
          "internalType": "bool",
          "name": "",
          "type": "bool"
        }
      ],
      "stateMutability": "nonpayable",
      "type": "function"
    },
    {
      "inputs": [],
      "name": "initialize",
      "outputs": [],
      "stateMutability": "nonpayable",
      "type": "function"
    },
    {
      "inputs": [],
      "name": "name",
      "outputs": [
        {
          "internalType": "string",
          "name": "",
          "type": "string"
        }
      ],
      "stateMutability": "view",
      "type": "function"
    },
    {
      "inputs": [],
      "name": "owner",
      "outputs": [
        {
          "internalType": "address",
          "name": "",
          "type": "address"
        }
      ],
      "stateMutability": "view",
      "type": "function"
    },
    {
      "inputs": [],
      "name": "proxiableUUID",
      "outputs": [
        {
          "internalType": "bytes32",
          "name": "",
          "type": "bytes32"
        }
      ],
      "stateMutability": "view",
      "type": "function"
    },
    {
      "inputs": [],
      "name": "renounceOwnership",
      "outputs": [],
      "stateMutability": "nonpayable",
      "type": "function"
    },
    {
      "inputs": [],
      "name": "symbol",
      "outputs": [
        {
          "internalType": "string",
          "name": "",
          "type": "string"
        }
      ],
      "stateMutability": "view",
      "type": "function"
    },
    {
      "inputs": [],
      "name": "tax",
      "outputs": [
        {
          "internalType": "uint256",
          "name": "",
          "type": "uint256"
        }
      ],
      "stateMutability": "view",
      "type": "function"
    },
    {
      "inputs": [],
      "name": "totalSupply",
      "outputs": [
        {
          "internalType": "uint256",
          "name": "",
          "type": "uint256"
        }
      ],
      "stateMutability": "view",
      "type": "function"
    },
    {
      "inputs": [
        {
          "internalType": "address",
          "name": "to",
          "type": "address"
        },
        {
          "internalType": "uint256",
          "name": "amount",
          "type": "uint256"
        }
      ],
      "name": "transfer",
      "outputs": [
        {
          "internalType": "bool",
          "name": "",
          "type": "bool"
        }
      ],
      "stateMutability": "nonpayable",
      "type": "function"
    },
    {
      "inputs": [
        {
          "internalType": "address",
          "name": "from",
          "type": "address"
        },
        {
          "internalType": "address",
          "name": "to",
          "type": "address"
        },
        {
          "internalType": "uint256",
          "name": "amount",
          "type": "uint256"
        }
      ],
      "name": "transferFrom",
      "outputs": [
        {
          "internalType": "bool",
          "name": "",
          "type": "bool"
        }
      ],
      "stateMutability": "nonpayable",
      "type": "function"
    },
    {
      "inputs": [
        {
          "internalType": "address",
          "name": "newOwner",
          "type": "address"
        }
      ],
      "name": "transferOwnership",
      "outputs": [],
      "stateMutability": "nonpayable",
      "type": "function"
    },
    {
      "inputs": [
        {
          "internalType": "address",
          "name": "newImplementation",
          "type": "address"
        }
      ],
      "name": "upgradeTo",
      "outputs": [],
      "stateMutability": "nonpayable",
      "type": "function"
    },
    {
      "inputs": [
        {
          "internalType": "address",
          "name": "newImplementation",
          "type": "address"
        },
        {
          "internalType": "bytes",
          "name": "data",
          "type": "bytes"
        }
      ],
      "name": "upgradeToAndCall",
      "outputs": [],
      "stateMutability": "payable",
      "type": "function"
    },
    {
      "inputs": [],
      "name": "version",
      "outputs": [
        {
          "internalType": "string",
          "name": "",
          "type": "string"
        }
      ],
      "stateMutability": "pure",
      "type": "function"
    }
  ],
  "bytecode": {
    "object": "0x60a060405230608052600560fc5534801561001957600080fd5b50608051611980610051600039600081816104a0015281816104e9015281816105aa015281816105ea015261067d01526119806000f3fe60806040526004361061012a5760003560e01c806370a08231116100ab57806399c8d5561161006f57806399c8d55614610318578063a457c2d71461032e578063a9059cbb1461034e578063dd62ed3e1461036e578063ddca3f431461038e578063f2fde38b146103a457600080fd5b806370a082311461027b578063715018a6146102b15780638129fc1c146102c65780638da5cb5b146102db57806395d89b411461030357600080fd5b80633659cfe6116100f25780633659cfe6146101e557806339509351146102075780634f1ef2861461022757806352d1902d1461023a57806354fd4d501461024f57600080fd5b806306fdde031461012f578063095ea7b31461015a57806318160ddd1461018a57806323b872dd146101a9578063313ce567146101c9575b600080fd5b34801561013b57600080fd5b506101446103c4565b6040516101519190611388565b60405180910390f35b34801561016657600080fd5b5061017a6101753660046113d7565b610456565b6040519015158152602001610151565b34801561019657600080fd5b506035545b604051908152602001610151565b3480156101b557600080fd5b5061017a6101c4366004611401565b610470565b3480156101d557600080fd5b5060405160128152602001610151565b3480156101f157600080fd5b5061020561020036600461143d565b610496565b005b34801561021357600080fd5b5061017a6102223660046113d7565b61057e565b61020561023536600461146e565b6105a0565b34801561024657600080fd5b5061019b610670565b34801561025b57600080fd5b5060408051808201909152600381526276332160e81b6020820152610144565b34801561028757600080fd5b5061019b61029636600461143d565b6001600160a01b031660009081526033602052604090205490565b3480156102bd57600080fd5b50610205610723565b3480156102d257600080fd5b50610205610737565b3480156102e757600080fd5b5060c9546040516001600160a01b039091168152602001610151565b34801561030f57600080fd5b506101446108b3565b34801561032457600080fd5b5061019b60fc5481565b34801561033a57600080fd5b5061017a6103493660046113d7565b6108c2565b34801561035a57600080fd5b5061017a6103693660046113d7565b610948565b34801561037a57600080fd5b5061019b610389366004611530565b610956565b34801561039a57600080fd5b5061019b60fb5481565b3480156103b057600080fd5b506102056103bf36600461143d565b610981565b6060603680546103d390611563565b80601f01602080910402602001604051908101604052809291908181526020018280546103ff90611563565b801561044c5780601f106104215761010080835404028352916020019161044c565b820191906000526020600020905b81548152906001019060200180831161042f57829003601f168201915b5050505050905090565b6000336104648185856109f7565b60019150505b92915050565b60003361047e858285610b1b565b610489858585610b95565b60019150505b9392505050565b6001600160a01b037f00000000000000000000000000000000000000000000000000000000000000001630036104e75760405162461bcd60e51b81526004016104de9061159d565b60405180910390fd5b7f00000000000000000000000000000000000000000000000000000000000000006001600160a01b0316610530600080516020611904833981519152546001600160a01b031690565b6001600160a01b0316146105565760405162461bcd60e51b81526004016104de906115e9565b61055f81610d63565b6040805160008082526020820190925261057b91839190610d6b565b50565b6000336104648185856105918383610956565b61059b919061164b565b6109f7565b6001600160a01b037f00000000000000000000000000000000000000000000000000000000000000001630036105e85760405162461bcd60e51b81526004016104de9061159d565b7f00000000000000000000000000000000000000000000000000000000000000006001600160a01b0316610631600080516020611904833981519152546001600160a01b031690565b6001600160a01b0316146106575760405162461bcd60e51b81526004016104de906115e9565b61066082610d63565b61066c82826001610d6b565b5050565b6000306001600160a01b037f000000000000000000000000000000000000000000000000000000000000000016146107105760405162461bcd60e51b815260206004820152603860248201527f555550535570677261646561626c653a206d757374206e6f742062652063616c60448201527f6c6564207468726f7567682064656c656761746563616c6c000000000000000060648201526084016104de565b5060008051602061190483398151915290565b61072b610edb565b6107356000610f35565b565b600054610100900460ff16158080156107575750600054600160ff909116105b806107715750303b158015610771575060005460ff166001145b6107d45760405162461bcd60e51b815260206004820152602e60248201527f496e697469616c697a61626c653a20636f6e747261637420697320616c72656160448201526d191e481a5b9a5d1a585b1a5e995960921b60648201526084016104de565b6000805460ff1916600117905580156107f7576000805461ff0019166101001790555b610839604051806040016040528060048152602001634d61727360e01b815250604051806040016040528060048152602001634d41525360e01b815250610f87565b610841610fb8565b610849610fe8565b61086b336108596012600a611747565b6108669062989680611756565b61100f565b801561057b576000805461ff0019169055604051600181527f7f26b83ff96e1f2b6a682f133852f6798a09c465da95921460cefb38474024989060200160405180910390a150565b6060603780546103d390611563565b600033816108d08286610956565b9050838110156109305760405162461bcd60e51b815260206004820152602560248201527f45524332303a2064656372656173656420616c6c6f77616e63652062656c6f77604482015264207a65726f60d81b60648201526084016104de565b61093d82868684036109f7565b506001949350505050565b600033610464818585610b95565b6001600160a01b03918216600090815260346020908152604080832093909416825291909152205490565b610989610edb565b6001600160a01b0381166109ee5760405162461bcd60e51b815260206004820152602660248201527f4f776e61626c653a206e6577206f776e657220697320746865207a65726f206160448201526564647265737360d01b60648201526084016104de565b61057b81610f35565b6001600160a01b038316610a595760405162461bcd60e51b8152602060048201526024808201527f45524332303a20617070726f76652066726f6d20746865207a65726f206164646044820152637265737360e01b60648201526084016104de565b6001600160a01b038216610aba5760405162461bcd60e51b815260206004820152602260248201527f45524332303a20617070726f766520746f20746865207a65726f206164647265604482015261737360f01b60648201526084016104de565b6001600160a01b0383811660008181526034602090815260408083209487168084529482529182902085905590518481527f8c5be1e5ebec7d5bd14f71427d1e84f3dd0314c0f7b2291e5b200ac8c7c3b925910160405180910390a3505050565b6000610b278484610956565b90506000198114610b8f5781811015610b825760405162461bcd60e51b815260206004820152601d60248201527f45524332303a20696e73756666696369656e7420616c6c6f77616e636500000060448201526064016104de565b610b8f84848484036109f7565b50505050565b6001600160a01b038316610bf95760405162461bcd60e51b815260206004820152602560248201527f45524332303a207472616e736665722066726f6d20746865207a65726f206164604482015264647265737360d81b60648201526084016104de565b6001600160a01b038216610c5b5760405162461bcd60e51b815260206004820152602360248201527f45524332303a207472616e7366657220746f20746865207a65726f206164647260448201526265737360e81b60648201526084016104de565b6001600160a01b03831660009081526033602052604090205481811015610cd35760405162461bcd60e51b815260206004820152602660248201527f45524332303a207472616e7366657220616d6f756e7420657863656564732062604482015265616c616e636560d01b60648201526084016104de565b6001600160a01b03808516600090815260336020526040808220858503905591851681529081208054849290610d0a90849061164b565b92505081905550826001600160a01b0316846001600160a01b03167fddf252ad1be2c89b69c2b068fc378daa952ba7f163c4a11628f55a4df523b3ef84604051610d5691815260200190565b60405180910390a3610b8f565b61057b610edb565b7f4910fdfa16fed3260ed0e7147f7cc6da11a60208b5b9406d12a635614ffd91435460ff1615610da357610d9e836110ee565b505050565b826001600160a01b03166352d1902d6040518163ffffffff1660e01b8152600401602060405180830381865afa925050508015610dfd575060408051601f3d908101601f19168201909252610dfa91810190611775565b60015b610e605760405162461bcd60e51b815260206004820152602e60248201527f45524331393637557067726164653a206e657720696d706c656d656e7461746960448201526d6f6e206973206e6f74205555505360901b60648201526084016104de565b6000805160206119048339815191528114610ecf5760405162461bcd60e51b815260206004820152602960248201527f45524331393637557067726164653a20756e737570706f727465642070726f786044820152681a58589b195555525160ba1b60648201526084016104de565b50610d9e83838361118a565b60c9546001600160a01b031633146107355760405162461bcd60e51b815260206004820181905260248201527f4f776e61626c653a2063616c6c6572206973206e6f7420746865206f776e657260448201526064016104de565b60c980546001600160a01b038381166001600160a01b0319831681179093556040519116919082907f8be0079c531659141344cd1fd0a4f28419497f9722a3daafe3b4186f6b6457e090600090a35050565b600054610100900460ff16610fae5760405162461bcd60e51b81526004016104de9061178e565b61066c82826111af565b600054610100900460ff16610fdf5760405162461bcd60e51b81526004016104de9061178e565b61073533610f35565b600054610100900460ff166107355760405162461bcd60e51b81526004016104de9061178e565b6001600160a01b0382166110655760405162461bcd60e51b815260206004820152601f60248201527f45524332303a206d696e7420746f20746865207a65726f20616464726573730060448201526064016104de565b8060356000828254611077919061164b565b90915550506001600160a01b038216600090815260336020526040812080548392906110a490849061164b565b90915550506040518181526001600160a01b038316906000907fddf252ad1be2c89b69c2b068fc378daa952ba7f163c4a11628f55a4df523b3ef9060200160405180910390a35050565b6001600160a01b0381163b61115b5760405162461bcd60e51b815260206004820152602d60248201527f455243313936373a206e657720696d706c656d656e746174696f6e206973206e60448201526c1bdd08184818dbdb9d1c9858dd609a1b60648201526084016104de565b60008051602061190483398151915280546001600160a01b0319166001600160a01b0392909216919091179055565b611193836111ef565b6000825111806111a05750805b15610d9e57610b8f838361122f565b600054610100900460ff166111d65760405162461bcd60e51b81526004016104de9061178e565b60366111e28382611827565b506037610d9e8282611827565b6111f8816110ee565b6040516001600160a01b038216907fbc7cd75a20ee27fd9adebab32041f755214dbc6bffa90cc0225b39da2e5c2d3b90600090a250565b60606001600160a01b0383163b6112975760405162461bcd60e51b815260206004820152602660248201527f416464726573733a2064656c65676174652063616c6c20746f206e6f6e2d636f6044820152651b9d1c9858dd60d21b60648201526084016104de565b600080846001600160a01b0316846040516112b291906118e7565b600060405180830381855af49150503d80600081146112ed576040519150601f19603f3d011682016040523d82523d6000602084013e6112f2565b606091505b509150915061131a828260405180606001604052806027815260200161192460279139611323565b95945050505050565b6060831561133257508161048f565b8251156113425782518084602001fd5b8160405162461bcd60e51b81526004016104de9190611388565b60005b8381101561137757818101518382015260200161135f565b83811115610b8f5750506000910152565b60208152600082518060208401526113a781604085016020870161135c565b601f01601f19169190910160400192915050565b80356001600160a01b03811681146113d257600080fd5b919050565b600080604083850312156113ea57600080fd5b6113f3836113bb565b946020939093013593505050565b60008060006060848603121561141657600080fd5b61141f846113bb565b925061142d602085016113bb565b9150604084013590509250925092565b60006020828403121561144f57600080fd5b61048f826113bb565b634e487b7160e01b600052604160045260246000fd5b6000806040838503121561148157600080fd5b61148a836113bb565b9150602083013567ffffffffffffffff808211156114a757600080fd5b818501915085601f8301126114bb57600080fd5b8135818111156114cd576114cd611458565b604051601f8201601f19908116603f011681019083821181831017156114f5576114f5611458565b8160405282815288602084870101111561150e57600080fd5b8260208601602083013760006020848301015280955050505050509250929050565b6000806040838503121561154357600080fd5b61154c836113bb565b915061155a602084016113bb565b90509250929050565b600181811c9082168061157757607f821691505b60208210810361159757634e487b7160e01b600052602260045260246000fd5b50919050565b6020808252602c908201527f46756e6374696f6e206d7573742062652063616c6c6564207468726f7567682060408201526b19195b1959d85d1958d85b1b60a21b606082015260800190565b6020808252602c908201527f46756e6374696f6e206d7573742062652063616c6c6564207468726f7567682060408201526b6163746976652070726f787960a01b606082015260800190565b634e487b7160e01b600052601160045260246000fd5b6000821982111561165e5761165e611635565b500190565b600181815b8085111561169e57816000190482111561168457611684611635565b8085161561169157918102915b93841c9390800290611668565b509250929050565b6000826116b55750600161046a565b816116c25750600061046a565b81600181146116d857600281146116e2576116fe565b600191505061046a565b60ff8411156116f3576116f3611635565b50506001821b61046a565b5060208310610133831016604e8410600b8410161715611721575081810a61046a565b61172b8383611663565b806000190482111561173f5761173f611635565b029392505050565b600061048f60ff8416836116a6565b600081600019048311821515161561177057611770611635565b500290565b60006020828403121561178757600080fd5b5051919050565b6020808252602b908201527f496e697469616c697a61626c653a20636f6e7472616374206973206e6f74206960408201526a6e697469616c697a696e6760a81b606082015260800190565b601f821115610d9e57600081815260208120601f850160051c810160208610156118005750805b601f850160051c820191505b8181101561181f5782815560010161180c565b505050505050565b815167ffffffffffffffff81111561184157611841611458565b6118558161184f8454611563565b846117d9565b602080601f83116001811461188a57600084156118725750858301515b600019600386901b1c1916600185901b17855561181f565b600085815260208120601f198616915b828110156118b95788860151825594840194600190910190840161189a565b50858210156118d75787850151600019600388901b60f8161c191681555b5050505050600190811b01905550565b600082516118f981846020870161135c565b919091019291505056fe360894a13ba1a3210667c828492db98dca3e2076cc3735a920a3ca505d382bbc416464726573733a206c6f772d6c6576656c2064656c65676174652063616c6c206661696c6564a26469706673582212208c338169abb265a59a718f17ff9008caedd5b0b67dcb829bd588f0d7c2f18e0a64736f6c634300080f0033",
    "linkReferences": {}
  },
  "methodIdentifiers": {
    "allowance(address,address)": "dd62ed3e",
    "approve(address,uint256)": "095ea7b3",
    "balanceOf(address)": "70a08231",
    "decimals()": "313ce567",
    "decreaseAllowance(address,uint256)": "a457c2d7",
    "fee()": "ddca3f43",
    "increaseAllowance(address,uint256)": "39509351",
    "initialize()": "8129fc1c",
    "name()": "06fdde03",
    "owner()": "8da5cb5b",
    "proxiableUUID()": "52d1902d",
    "renounceOwnership()": "715018a6",
    "symbol()": "95d89b41",
    "tax()": "99c8d556",
    "totalSupply()": "18160ddd",
    "transfer(address,uint256)": "a9059cbb",
    "transferFrom(address,address,uint256)": "23b872dd",
    "transferOwnership(address)": "f2fde38b",
    "upgradeTo(address)": "3659cfe6",
    "upgradeToAndCall(address,bytes)": "4f1ef286",
    "version()": "54fd4d50"
  },
  "id": 18
}